:100000009628FF3FFF3FFF3FFF00030E8301BC0028
:100010000408BB000A08BD008A017108C40070080A
:10002000C3000C1C17282015101065210C100B1C88
:100030002428861F20288E018F011014A01022284A
:100040001010A01465210B108B1C4028BA0106303B
:100050003A02031839283A082A3FF1003A08303F9B
:1000600084000008F0007108840070088000BA0A5B
:100070002728861006118611B60181010B118B10FD
:100080000B1D8928BA0106303A0203187C283A0869
:100090002A3F84000008F1007108013A031D662818
:1000A0005A288614361466280615B614662886154E
:1000B000361566283A08003A031951283A08013AD9
:1000C000031954283A08023A031957283A082A3FD4
:1000D00084000008F000700803197A283A082A3FC3
:1000E000F100710884000008F000F003710884003A
:1000F00070088000BA0A4328003088180130F100E7
:100100007109F000003070180230080602398806C4
:100110000B114408F1004308F0003D088A003B0839
:1001200084003C0E8300FF0E7F0E0900D4210630B0
:1001300083169F0085018312850181308316860016
:100140008312860187018701831688018312880143
:1001500006170330FC00FF30FB00FF30FA00FC0BF9
:10016000B228B928FB0BB528B828FA0BB528B22855
:10017000AF288C30FB00FF30FA00FB0BC028C328EF
:10018000FA0BC028BD28A130FA00FA0BC5280000E0
:1001900006130330FC00FF30FB00FF30FA00FC0BBD
:1001A000D228D928FB0BD528D828FA0BD528D22855
:1001B000CF288C30FB00FF30FA00FB0BE028E3284F
:1001C000FA0BE028DD28A130FA00FA0BE528000040
:1001D00006170330FC00FF30FB00FF30FA00FC0B79
:1001E000F228F928FB0BF528F828FA0BF528F22855
:1001F000EF288C30FB00FF30FA00FB0B00290329AD
:10020000FA0B0029FD28A130FA00FA0B052900009D
:1002100006130130831681002430831290000130D0
:1002200083168C00F8308B00403099001815E721B8
:100230002830B0000A30B100290803192429280801
:10024000B8002908B900A901390803196229402911
:10025000051437145C298514B7145C290515371566
:100260005C29051037105C298510B7105C29051131
:1002700037115C29051085100511F030B7055C2990
:100280003908163A0319282939080C3A03192B2979
:100290003908083A03192E2939080D3A031931296A
:1002A00039085E3A0319342939085A3A03193729AB
:1002B0003908453A03193A293808BE00F7213908A8
:1002C000BE00F721B9011C29642903138312A01C65
:1002D000C12920198A2901300F02031C75290F0832
:1002E000033C031C752920108A2907300F02031CC8
:1002F0007F290F08093C031C7F2920148A29143008
:100300000F02031C89290F08163C031C8929A0151C
:100310008A29A011A010A01DB929201FB7292108E2
:1003200003199829A20CA213201C9729A2179C2913
:10033000201C9C298030A200A10A08302102031C45
:10034000B729A1012708233FF00070088400220884
:100350008000A201A70A04302702031CB729A701C5
:10036000A0162609F10025087106031DC3292017D0
:10037000BA29C329A01EC1292308A8002508A9005D
:10038000C329201DC929A101A301A401A501A6011A
:10039000A0010030201B0130F10000307118403006
:1003A0000606403986060800003003138312A000B9
:1003B0000030A2000030A1000030A7000030A800EB
:1003C0000030A9000030B7000030B6000800031369
:1003D0008316981690308312980083168717071398
:1003E00083128C1EF6291A08C200F029080000307A
:1003F0000313831698180130F1007108003A031DA9
:10040000032A0000F72983123E0899000800FF3FE5
:02400E007A3FF7
:00000001FF
